{
    "contractName": "Mycontracts",
    "abi": [
        {
            "inputs": [
                {
                    "internalType": "string",
                    "name": "_name",
                    "type": "string"
                }
            ],
            "stateMutability": "nonpayable",
            "type": "constructor"
        },
        {
            "inputs": [
                {
                    "internalType": "string",
                    "name": "_name",
                    "type": "string"
                }
            ],
            "name": "changeName",
            "outputs": [],
            "stateMutability": "nonpayable",
            "type": "function"
        },
        {
            "inputs": [],
            "name": "getname",
            "outputs": [
                {
                    "internalType": "string",
                    "name": "",
                    "type": "string"
                }
            ],
            "stateMutability": "view",
            "type": "function"
        }
    ],
    "bytecode": "608060405234801561001057600080fd5b5060405161061c38038061061c83398101604081905261002f91610058565b600061003b82826101aa565b5050610269565b634e487b7160e01b600052604160045260246000fd5b6000602080838503121561006b57600080fd5b82516001600160401b038082111561008257600080fd5b818501915085601f83011261009657600080fd5b8151818111156100a8576100a8610042565b604051601f8201601f19908116603f011681019083821181831017156100d0576100d0610042565b8160405282815288868487010111156100e857600080fd5b600093505b8284101561010a57848401860151818501870152928501926100ed565b600086848301015280965050505050505092915050565b600181811c9082168061013557607f821691505b60208210810361015557634e487b7160e01b600052602260045260246000fd5b50919050565b601f8211156101a557600081815260208120601f850160051c810160208610156101825750805b601f850160051c820191505b818110156101a15782815560010161018e565b5050505b505050565b81516001600160401b038111156101c3576101c3610042565b6101d7816101d18454610121565b8461015b565b602080601f83116001811461020c57600084156101f45750858301515b600019600386901b1c1916600185901b1785556101a1565b600085815260208120601f198616915b8281101561023b5788860151825594840194600190910190840161021c565b50858210156102595787850151600019600388901b60f8161c191681555b5050505050600190811b01905550565b6103a4806102786000396000f3fe608060405234801561001057600080fd5b50600436106100365760003560e01c80635353a2d81461003b578063c6ea59b914610050575b600080fd5b61004e610049366004610126565b61006e565b005b61005861007e565b60405161006591906101d7565b60405180910390f35b600061007a82826102ae565b5050565b60606000805461008d90610225565b80601f01602080910402602001604051908101604052809291908181526020018280546100b990610225565b80156101065780601f106100db57610100808354040283529160200191610106565b820191906000526020600020905b8154815290600101906020018083116100e957829003601f168201915b5050505050905090565b634e487b7160e01b600052604160045260246000fd5b60006020828403121561013857600080fd5b813567ffffffffffffffff8082111561015057600080fd5b818401915084601f83011261016457600080fd5b81358181111561017657610176610110565b604051601f8201601f19908116603f0116810190838211818310171561019e5761019e610110565b816040528281528760208487010111156101b757600080fd5b826020860160208301376000928101602001929092525095945050505050565b600060208083528351808285015260005b81811015610204578581018301518582016040015282016101e8565b506000604082860101526040601f19601f8301168501019250505092915050565b600181811c9082168061023957607f821691505b60208210810361025957634e487b7160e01b600052602260045260246000fd5b50919050565b601f8211156102a957600081815260208120601f850160051c810160208610156102865750805b601f850160051c820191505b818110156102a557828155600101610292565b5050505b505050565b815167ffffffffffffffff8111156102c8576102c8610110565b6102dc816102d68454610225565b8461025f565b602080601f83116001811461031157600084156102f95750858301515b600019600386901b1c1916600185901b1785556102a5565b600085815260208120601f198616915b8281101561034057888601518255948401946001909101908401610321565b508582101561035e5787850151600019600388901b60f8161c191681555b5050505050600190811b0190555056fea26469706673582212208dcaa297779049099722a86f9d62fc8fe5f4088f93ce35d78199307ee4fc1ee164736f6c63430008130033",
    "sourcePath": "c:/Users/narud/Desktop/Solidity-Project/contracts/Mysol.sol",
    "compiler": {
        "name": "solc",
        "version": "0.8.19+commit.7dd6d404"
    },
    "functionHashes": {
        "changeName(string)": "5353a2d8",
        "getname()": "c6ea59b9"
    },
    "gasEstimates": {
        "creation": {
            "codeDepositCost": "186400",
            "executionCost": "infinite",
            "totalCost": "infinite"
        },
        "external": {
            "changeName(string)": "infinite",
            "getname()": "infinite"
        }
    }
}