{
  "_format": "hh-sol-artifact-1",
  "contractName": "Mycontract",
  "sourceName": "contracts/Mycontract.sol",
  "abi": [
    {
      "inputs": [
        {
          "internalType": "string",
          "name": "name",
          "type": "string"
        },
        {
          "internalType": "uint256",
          "name": "balance",
          "type": "uint256"
        }
      ],
      "stateMutability": "nonpayable",
      "type": "constructor"
    },
    {
      "inputs": [
        {
          "internalType": "string",
          "name": "name",
          "type": "string"
        }
      ],
      "name": "changeName",
      "outputs": [],
      "stateMutability": "nonpayable",
      "type": "function"
    },
    {
      "inputs": [],
      "name": "getname",
      "outputs": [
        {
          "internalType": "string",
          "name": "",
          "type": "string"
        }
      ],
      "stateMutability": "view",
      "type": "function"
    }
  ],
  "bytecode": "0x60806040523480156200001157600080fd5b5060405162000933380380620009338339818101604052810190620000379190620001ea565b600081106200007d576040517f08c379a0000000000000000000000000000000000000000000000000000000008152600401620000749062000277565b60405180910390fd5b816000908051906020019062000095929190620000a5565b508060018190555050506200047b565b828054620000b39062000349565b90600052602060002090601f016020900481019282620000d7576000855562000123565b82601f10620000f257805160ff191683800117855562000123565b8280016001018555821562000123579182015b828111156200012257825182559160200191906001019062000105565b5b50905062000132919062000136565b5090565b5b808211156200015157600081600090555060010162000137565b5090565b60006200016c6200016684620002c2565b62000299565b9050828152602081018484840111156200018b576200018a62000418565b5b6200019884828562000313565b509392505050565b600082601f830112620001b857620001b762000413565b5b8151620001ca84826020860162000155565b91505092915050565b600081519050620001e48162000461565b92915050565b6000806040838503121562000204576200020362000422565b5b600083015167ffffffffffffffff8111156200022557620002246200041d565b5b6200023385828601620001a0565b92505060206200024685828601620001d3565b9150509250929050565b60006200025f601083620002f8565b91506200026c8262000438565b602082019050919050565b60006020820190508181036000830152620002928162000250565b9050919050565b6000620002a5620002b8565b9050620002b382826200037f565b919050565b6000604051905090565b600067ffffffffffffffff821115620002e057620002df620003e4565b5b620002eb8262000427565b9050602081019050919050565b600082825260208201905092915050565b6000819050919050565b60005b838110156200033357808201518184015260208101905062000316565b8381111562000343576000848401525b50505050565b600060028204905060018216806200036257607f821691505b60208210811415620003795762000378620003b5565b5b50919050565b6200038a8262000427565b810181811067ffffffffffffffff82111715620003ac57620003ab620003e4565b5b80604052505050565b7f4e487b7100000000000000000000000000000000000000000000000000000000600052602260045260246000fd5b7f4e487b7100000000000000000000000000000000000000000000000000000000600052604160045260246000fd5b600080fd5b600080fd5b600080fd5b600080fd5b6000601f19601f8301169050919050565b7f596f752062616c616e6365206973203000000000000000000000000000000000600082015250565b6200046c8162000309565b81146200047857600080fd5b50565b6104a8806200048b6000396000f3fe608060405234801561001057600080fd5b50600436106100365760003560e01c80635353a2d81461003b578063c6ea59b914610057575b600080fd5b61005560048036038101906100509190610234565b610075565b005b61005f61008f565b60405161006c91906102b6565b60405180910390f35b806000908051906020019061008b929190610121565b5050565b60606000805461009e9061038c565b80601f01602080910402602001604051908101604052809291908181526020018280546100ca9061038c565b80156101175780601f106100ec57610100808354040283529160200191610117565b820191906000526020600020905b8154815290600101906020018083116100fa57829003601f168201915b5050505050905090565b82805461012d9061038c565b90600052602060002090601f01602090048101928261014f5760008555610196565b82601f1061016857805160ff1916838001178555610196565b82800160010185558215610196579182015b8281111561019557825182559160200191906001019061017a565b5b5090506101a391906101a7565b5090565b5b808211156101c05760008160009055506001016101a8565b5090565b60006101d76101d2846102fd565b6102d8565b9050828152602081018484840111156101f3576101f2610452565b5b6101fe84828561034a565b509392505050565b600082601f83011261021b5761021a61044d565b5b813561022b8482602086016101c4565b91505092915050565b60006020828403121561024a5761024961045c565b5b600082013567ffffffffffffffff81111561026857610267610457565b5b61027484828501610206565b91505092915050565b60006102888261032e565b6102928185610339565b93506102a2818560208601610359565b6102ab81610461565b840191505092915050565b600060208201905081810360008301526102d0818461027d565b905092915050565b60006102e26102f3565b90506102ee82826103be565b919050565b6000604051905090565b600067ffffffffffffffff8211156103185761031761041e565b5b61032182610461565b9050602081019050919050565b600081519050919050565b600082825260208201905092915050565b82818337600083830152505050565b60005b8381101561037757808201518184015260208101905061035c565b83811115610386576000848401525b50505050565b600060028204905060018216806103a457607f821691505b602082108114156103b8576103b76103ef565b5b50919050565b6103c782610461565b810181811067ffffffffffffffff821117156103e6576103e561041e565b5b80604052505050565b7f4e487b7100000000000000000000000000000000000000000000000000000000600052602260045260246000fd5b7f4e487b7100000000000000000000000000000000000000000000000000000000600052604160045260246000fd5b600080fd5b600080fd5b600080fd5b600080fd5b6000601f19601f830116905091905056fea26469706673582212205f0c8038d8b7ca45ecfae9e05017f86bc797a3cfa3cd0a5efa342457fec984c964736f6c63430008050033",
  "linkReferences": {},
  "deployedLinkReferences": {}
}